:020000040000FA
:060000000A128A110C280F
:10000800FE00030EF0000A08F1000A128A116228A5
:100018000A128A110F28F801F901FA01FB0183126B
:100028000313A001A101A201A30183010A128A11ED
:10003800E128831203139817831603131812181351
:100048008312031318133A281930831603139900DF
:10005800181583160317871147280C3083160313C6
:100068009900181183160317871147287308003A57
:1000780003193F2847287208043A031928280C3A1C
:1000880003193128472874037504031D4C284D288B
:1000980051288316031398165428831603139812AD
:1000A80076037704031D59285A285E288312031300
:1000B80018166128831203131812080083120313F9
:1000C8000618672868286A28FB01FB0A86186D2825
:1000D8006E287028FC01FC0A0619732874287628F3
:1000E800FD01FD0A861979287A287C28FE01FE0A76
:1000F800061C7F2880288128FB01861C84288528E7
:100108008628FC01061D89288A288B28FD01861D62
:100118008E288F289028FE0171088A00700E8300AF
:10012800FE0E7E0E0900831603178801890101302F
:100138008316031385000F3086000F088F39603847
:100148008F008F110F1481138B150F3096000F300D
:1001580095000430F2000030F3000130F400003064
:10016800F5000130F6000030F7000A128A111D2050
:100178000A128A110B178B17831603138C16831216
:1001880003138C120800F300D928730884000008B0
:1001980083120313990083160313981CD428D528B7
:1001A800CF280130F2007208F307730884000008B2
:1001B800031DDF28E028C92808000A128A119720A1
:1001C8000A128A117B300A128A11C7200A128A1170
:1001D8000D3083120313A500FB30A400A40BF228F2
:0C01E800A50BF228E6280A128A110C2848
:04400E00C420FF3F8C
:00000001FF
