:020000040000FA
:060000000A128A11122809
:10000800FE00030E83120313B0000408B1000A08AF
:10001800B2007F08B3000A128A110B290A128A114A
:10002800152883120313BA01BB01BC01BD01BE012F
:10003800BF01C001C10183010A128A11962A8312E5
:100048000313AB002130A3002308A600F4282530B1
:100058002C060319302831283D282C08A3002B082A
:1000680084002308831380000130A3002308AB0712
:10007800F428A7010130A007FF30200784000A12E6
:100088008A1183220A128A11AC00A300A401240851
:10009800003A03195028F4282308003A03190629BE
:1000A800643A03195B280D3A03195B28F4282608DB
:1000B800840083130008A900840A0008AA000230FB
:1000C800A3002308A607AA1F6A286B2874280330F0
:1000D800A3002308A704A909AA09A90A0319AA0AB7
:1000E800AC01AC0A2C08A3002307013E84000A12C5
:1000F8008A1183220A128A11A4000A128A11832201
:100108000A128A11A50025082A02031D8D28240831
:10011800290203189028912892289C280130A300CE
:100128002308AC0705302C06031D9B289C2876283D
:10013800270803390319A128A228AD282D30A300C8
:100148002B0884002308831380000130A3002308B0
:10015800AB072C08A3002308A800EB280A30F800F6
:100168000030F9002808A3002307013E84000A1282
:100178008A1183220A128A11F0000A128A11832234
:100188000A128A11F1002A08F3002908F2000A125B
:100198008A11D2210A128A117108FB007008FA002C
:1001A8000A128A1116220A128A117808303E83121E
:1001B8000313A4002408AC002C08A3002B08840017
:1001C8002308831380000130A3002308AB07FF3006
:1001D800A3002308A807280A031DF328F428B22837
:1001E8000130A007FF30200784000A128A118322F9
:1001F8000A128A11A3002308AC002C08031D052944
:1002080006292B282B0884008313800108000B1C67
:100218000E290F2980290618122913292229861C3C
:10022800162917292229061D1A291B292229861D64
:100238001E291F292229313099006E29061C2529DB
:1002480026293529861829292A293529061D2D29DF
:100258002E293529861D3129322935293230990030
:100268006E29061C382939294829861C3C293D292C
:1002780048290619402941294829861D4429452924
:100288004829333099006E29061C4B294C295B29D3
:10029800861C4F2950295B29061D532954295B299F
:1002A8008619572958295B29343099006E29061C6C
:1002B8005E295F296E29861C622963296E29061D1D
:1002C800662967296E29861D6A296B296E293030AF
:1002D80099006E290B30AD002D08A0004008AE0033
:1002E800AF012E08A1002F08A20041300A128A117E
:1002F80023200A128A110B10831203133308FF00FC
:1003080032088A0031088400300E8300FE0E7E0E0B
:10031800090083120313981783160313181218136E
:10032800831203131813AA2919308316031399008B
:100338001815831603178711B7290C308316031372
:1003480099001811831603178711B7293508003A41
:100358000319AF29B7293408043A031998290C3A24
:100368000319A129B7298312031336033704031D80
:10037800BE29BF29C329831603139816C6298316D5
:10038800031398128312031338033904031DCD296C
:10039800CE29D0291816D12918120800F501F6011E
:1003A800700871040319D929DA29112AF701F70A03
:1003B800E82901300310F00DF10DFF3E031DDE2981
:1003C8000130F4007408F707F11FEB29EC29DD2947
:1003D80001300310F50DF60DFF3E031DED297108E0
:1003E8007302031DF92970087202031CFC29FD29F8
:1003F800042A7008F2027108031CF303F30275144F
:1004080001300310F10CF00CFF3E031D052A0130EA
:10041800F702031D102A112AEC297608F100750845
:10042800F00008007808790403191B2A1C2A4B2AB3
:10043800FD01FD0A2A2A01300310F80DF90DFF3ECF
:10044800031D202A0130FC007C08FD07F91F2D2A16
:100458002E2A1F2A79087B02031D342A78087A027B
:10046800031C372A382A3E2A7808FA027908031C1E
:10047800FB03FB0201300310F90CF80CFF3E031DCF
:100488003F2A0130FD02031D4A2A4B2A2E2A7B08E7
:10049800F9007A08F8000800831603178801890113
:1004A80001308316031385000F3086000F088F393B
:1004B80060388F008F110F1481138B150F30960041
:1004C8000F309500043083120313B4000030B500D8
:1004D8000130B6000030B7000130B8000030B90074
:1004E8000A128A118D210A128A110B178B1783168B
:1004F80003138C16831203138C12C00108000230F8
:100508008A000408840A82070034013400340A345B
:10051800003464340034E834033410342734253488
:10052800643400340A128A1150220A128A119B2A52
:060538000A128A111228CC
:04400E00C420FF3F8C
:00000001FF
